{
  "_format": "hh-sol-artifact-1",
  "contractName": "FlyFrogsTadpoles",
  "sourceName": "contracts/FlyFrogsTadpoles.sol",
  "abi": [
    {
      "inputs": [
        {
          "internalType": "address",
          "name": "_signer",
          "type": "address"
        },
        {
          "internalType": "string",
          "name": "_uri",
          "type": "string"
        },
        {
          "internalType": "address",
          "name": "_firstMinter",
          "type": "address"
        }
      ],
      "stateMutability": "nonpayable",
      "type": "constructor"
    },
    {
      "anonymous": false,
      "inputs": [
        {
          "indexed": true,
          "internalType": "address",
          "name": "account",
          "type": "address"
        },
        {
          "indexed": true,
          "internalType": "address",
          "name": "operator",
          "type": "address"
        },
        {
          "indexed": false,
          "internalType": "bool",
          "name": "approved",
          "type": "bool"
        }
      ],
      "name": "ApprovalForAll",
      "type": "event"
    },
    {
      "anonymous": false,
      "inputs": [
        {
          "indexed": true,
          "internalType": "address",
          "name": "previousOwner",
          "type": "address"
        },
        {
          "indexed": true,
          "internalType": "address",
          "name": "newOwner",
          "type": "address"
        }
      ],
      "name": "OwnershipTransferred",
      "type": "event"
    },
    {
      "anonymous": false,
      "inputs": [
        {
          "indexed": true,
          "internalType": "address",
          "name": "operator",
          "type": "address"
        },
        {
          "indexed": true,
          "internalType": "address",
          "name": "from",
          "type": "address"
        },
        {
          "indexed": true,
          "internalType": "address",
          "name": "to",
          "type": "address"
        },
        {
          "indexed": false,
          "internalType": "uint256[]",
          "name": "ids",
          "type": "uint256[]"
        },
        {
          "indexed": false,
          "internalType": "uint256[]",
          "name": "values",
          "type": "uint256[]"
        }
      ],
      "name": "TransferBatch",
      "type": "event"
    },
    {
      "anonymous": false,
      "inputs": [
        {
          "indexed": true,
          "internalType": "address",
          "name": "operator",
          "type": "address"
        },
        {
          "indexed": true,
          "internalType": "address",
          "name": "from",
          "type": "address"
        },
        {
          "indexed": true,
          "internalType": "address",
          "name": "to",
          "type": "address"
        },
        {
          "indexed": false,
          "internalType": "uint256",
          "name": "id",
          "type": "uint256"
        },
        {
          "indexed": false,
          "internalType": "uint256",
          "name": "value",
          "type": "uint256"
        }
      ],
      "name": "TransferSingle",
      "type": "event"
    },
    {
      "anonymous": false,
      "inputs": [
        {
          "indexed": false,
          "internalType": "string",
          "name": "value",
          "type": "string"
        },
        {
          "indexed": true,
          "internalType": "uint256",
          "name": "id",
          "type": "uint256"
        }
      ],
      "name": "URI",
      "type": "event"
    },
    {
      "inputs": [],
      "name": "_paused",
      "outputs": [
        {
          "internalType": "bool",
          "name": "",
          "type": "bool"
        }
      ],
      "stateMutability": "view",
      "type": "function"
    },
    {
      "inputs": [
        {
          "internalType": "address",
          "name": "burnerAddress",
          "type": "address"
        }
      ],
      "name": "addBurnerAddress",
      "outputs": [],
      "stateMutability": "nonpayable",
      "type": "function"
    },
    {
      "inputs": [
        {
          "internalType": "address",
          "name": "account",
          "type": "address"
        },
        {
          "internalType": "uint256",
          "name": "id",
          "type": "uint256"
        }
      ],
      "name": "balanceOf",
      "outputs": [
        {
          "internalType": "uint256",
          "name": "",
          "type": "uint256"
        }
      ],
      "stateMutability": "view",
      "type": "function"
    },
    {
      "inputs": [
        {
          "internalType": "address[]",
          "name": "accounts",
          "type": "address[]"
        },
        {
          "internalType": "uint256[]",
          "name": "ids",
          "type": "uint256[]"
        }
      ],
      "name": "balanceOfBatch",
      "outputs": [
        {
          "internalType": "uint256[]",
          "name": "",
          "type": "uint256[]"
        }
      ],
      "stateMutability": "view",
      "type": "function"
    },
    {
      "inputs": [
        {
          "internalType": "address",
          "name": "burnTokenAddress",
          "type": "address"
        },
        {
          "internalType": "uint256",
          "name": "tokenId",
          "type": "uint256"
        }
      ],
      "name": "burnForAddress",
      "outputs": [],
      "stateMutability": "nonpayable",
      "type": "function"
    },
    {
      "inputs": [
        {
          "internalType": "address",
          "name": "account",
          "type": "address"
        },
        {
          "internalType": "string",
          "name": "nonce",
          "type": "string"
        },
        {
          "internalType": "bytes",
          "name": "signature",
          "type": "bytes"
        }
      ],
      "name": "hatch",
      "outputs": [
        {
          "internalType": "uint256",
          "name": "",
          "type": "uint256"
        }
      ],
      "stateMutability": "nonpayable",
      "type": "function"
    },
    {
      "inputs": [
        {
          "internalType": "address",
          "name": "account",
          "type": "address"
        },
        {
          "internalType": "address",
          "name": "operator",
          "type": "address"
        }
      ],
      "name": "isApprovedForAll",
      "outputs": [
        {
          "internalType": "bool",
          "name": "",
          "type": "bool"
        }
      ],
      "stateMutability": "view",
      "type": "function"
    },
    {
      "inputs": [],
      "name": "isPaused",
      "outputs": [
        {
          "internalType": "bool",
          "name": "",
          "type": "bool"
        }
      ],
      "stateMutability": "view",
      "type": "function"
    },
    {
      "inputs": [
        {
          "internalType": "address",
          "name": "account",
          "type": "address"
        },
        {
          "internalType": "uint256",
          "name": "count",
          "type": "uint256"
        },
        {
          "internalType": "string",
          "name": "nonce",
          "type": "string"
        },
        {
          "internalType": "bytes",
          "name": "signature",
          "type": "bytes"
        }
      ],
      "name": "multiHatch",
      "outputs": [
        {
          "internalType": "uint256[]",
          "name": "",
          "type": "uint256[]"
        }
      ],
      "stateMutability": "nonpayable",
      "type": "function"
    },
    {
      "inputs": [],
      "name": "name",
      "outputs": [
        {
          "internalType": "string",
          "name": "",
          "type": "string"
        }
      ],
      "stateMutability": "view",
      "type": "function"
    },
    {
      "inputs": [],
      "name": "owner",
      "outputs": [
        {
          "internalType": "address",
          "name": "",
          "type": "address"
        }
      ],
      "stateMutability": "view",
      "type": "function"
    },
    {
      "inputs": [
        {
          "internalType": "bool",
          "name": "val",
          "type": "bool"
        }
      ],
      "name": "pause",
      "outputs": [],
      "stateMutability": "nonpayable",
      "type": "function"
    },
    {
      "inputs": [],
      "name": "renounceOwnership",
      "outputs": [],
      "stateMutability": "nonpayable",
      "type": "function"
    },
    {
      "inputs": [
        {
          "internalType": "address",
          "name": "from",
          "type": "address"
        },
        {
          "internalType": "address",
          "name": "to",
          "type": "address"
        },
        {
          "internalType": "uint256[]",
          "name": "ids",
          "type": "uint256[]"
        },
        {
          "internalType": "uint256[]",
          "name": "amounts",
          "type": "uint256[]"
        },
        {
          "internalType": "bytes",
          "name": "data",
          "type": "bytes"
        }
      ],
      "name": "safeBatchTransferFrom",
      "outputs": [],
      "stateMutability": "nonpayable",
      "type": "function"
    },
    {
      "inputs": [
        {
          "internalType": "address",
          "name": "from",
          "type": "address"
        },
        {
          "internalType": "address",
          "name": "to",
          "type": "address"
        },
        {
          "internalType": "uint256",
          "name": "id",
          "type": "uint256"
        },
        {
          "internalType": "uint256",
          "name": "amount",
          "type": "uint256"
        },
        {
          "internalType": "bytes",
          "name": "data",
          "type": "bytes"
        }
      ],
      "name": "safeTransferFrom",
      "outputs": [],
      "stateMutability": "nonpayable",
      "type": "function"
    },
    {
      "inputs": [
        {
          "internalType": "address",
          "name": "operator",
          "type": "address"
        },
        {
          "internalType": "bool",
          "name": "approved",
          "type": "bool"
        }
      ],
      "name": "setApprovalForAll",
      "outputs": [],
      "stateMutability": "nonpayable",
      "type": "function"
    },
    {
      "inputs": [
        {
          "internalType": "address",
          "name": "_signer",
          "type": "address"
        }
      ],
      "name": "setSignerAddress",
      "outputs": [],
      "stateMutability": "nonpayable",
      "type": "function"
    },
    {
      "inputs": [
        {
          "internalType": "address",
          "name": "teamMember",
          "type": "address"
        },
        {
          "internalType": "bool",
          "name": "val",
          "type": "bool"
        }
      ],
      "name": "setTeamAddress",
      "outputs": [],
      "stateMutability": "nonpayable",
      "type": "function"
    },
    {
      "inputs": [
        {
          "internalType": "string",
          "name": "_baseURI",
          "type": "string"
        }
      ],
      "name": "setURI",
      "outputs": [],
      "stateMutability": "nonpayable",
      "type": "function"
    },
    {
      "inputs": [
        {
          "internalType": "bytes4",
          "name": "interfaceId",
          "type": "bytes4"
        }
      ],
      "name": "supportsInterface",
      "outputs": [
        {
          "internalType": "bool",
          "name": "",
          "type": "bool"
        }
      ],
      "stateMutability": "view",
      "type": "function"
    },
    {
      "inputs": [],
      "name": "symbol",
      "outputs": [
        {
          "internalType": "string",
          "name": "",
          "type": "string"
        }
      ],
      "stateMutability": "view",
      "type": "function"
    },
    {
      "inputs": [
        {
          "internalType": "address",
          "name": "newOwner",
          "type": "address"
        }
      ],
      "name": "transferOwnership",
      "outputs": [],
      "stateMutability": "nonpayable",
      "type": "function"
    },
    {
      "inputs": [
        {
          "internalType": "uint256",
          "name": "tokenId",
          "type": "uint256"
        }
      ],
      "name": "uri",
      "outputs": [
        {
          "internalType": "string",
          "name": "",
          "type": "string"
        }
      ],
      "stateMutability": "view",
      "type": "function"
    }
  ],
  "bytecode": "0x6080604052600a805460ff191660011790553480156200001e57600080fd5b50604051620032c1380380620032c18339810160408190526200004191620005bd565b816200004d8162000121565b5062000059336200013a565b81516200006e906006906020850190620004fa565b5060408051808201909152601280825271466c792046726f677320546164706f6c657360701b6020909201918252620000aa91600491620004fa565b5060408051808201909152600780825266464c595441445360c81b6020909201918252620000db91600591620004fa565b50600780546001600160a01b0319166001600160a01b0385161790556040805160208101909152600080825262000118918391906001906200018c565b505050620008bf565b805162000136906002906020840190620004fa565b5050565b600380546001600160a01b038381166001600160a01b0319831681179093556040519116919082907f8be0079c531659141344cd1fd0a4f28419497f9722a3daafe3b4186f6b6457e090600090a35050565b6001600160a01b038416620001f25760405162461bcd60e51b815260206004820152602160248201527f455243313135353a206d696e7420746f20746865207a65726f206164647265736044820152607360f81b60648201526084015b60405180910390fd5b3362000218816000876200020688620002ac565b6200021188620002ac565b5050505050565b6000848152602081815260408083206001600160a01b0389168452909152812080548592906200024a9084906200073d565b909155505060408051858152602081018590526001600160a01b0380881692600092918516917fc3d58168c5ae7397731d063d5bbf3d657854427343f4c083240f7aacaa2d0f62910160405180910390a462000211816000878787876200030e565b60408051600180825281830190925260609160009190602080830190803683370190505090508281600081518110620002f557634e487b7160e01b600052603260045260246000fd5b602090810291909101015292915050565b505050505050565b6200032d846001600160a01b0316620004f460201b62000f1c1760201c565b15620003065760405163f23a6e6160e01b81526001600160a01b0385169063f23a6e6190620003699089908990889088908890600401620006e1565b602060405180830381600087803b1580156200038457600080fd5b505af1925050508015620003b7575060408051601f3d908101601f19168201909252620003b49181019062000682565b60015b6200047857620003c662000817565b806308c379a01415620004075750620003de62000830565b80620003eb575062000409565b8060405162461bcd60e51b8152600401620001e9919062000728565b505b60405162461bcd60e51b815260206004820152603460248201527f455243313135353a207472616e7366657220746f206e6f6e204552433131353560448201527f526563656976657220696d706c656d656e7465720000000000000000000000006064820152608401620001e9565b6001600160e01b0319811663f23a6e6160e01b14620004eb5760405162461bcd60e51b815260206004820152602860248201527f455243313135353a204552433131353552656365697665722072656a656374656044820152676420746f6b656e7360c01b6064820152608401620001e9565b50505050505050565b3b151590565b828054620005089062000795565b90600052602060002090601f0160209004810192826200052c576000855562000577565b82601f106200054757805160ff191683800117855562000577565b8280016001018555821562000577579182015b82811115620005775782518255916020019190600101906200055a565b506200058592915062000589565b5090565b5b808211156200058557600081556001016200058a565b80516001600160a01b0381168114620005b857600080fd5b919050565b600080600060608486031215620005d2578283fd5b620005dd84620005a0565b60208501519093506001600160401b0380821115620005fa578384fd5b818601915086601f8301126200060e578384fd5b81518181111562000623576200062362000801565b60405191506200063e601f8201601f191660200183620007d2565b80825287602082850101111562000653578485fd5b6200066681602084016020860162000762565b50925062000679905060408501620005a0565b90509250925092565b60006020828403121562000694578081fd5b81516001600160e01b031981168114620006ac578182fd5b9392505050565b60008151808452620006cd81602086016020860162000762565b601f01601f19169290920160200192915050565b6001600160a01b03868116825285166020820152604081018490526060810183905260a0608082018190526000906200071d90830184620006b3565b979650505050505050565b602081526000620006ac6020830184620006b3565b600082198211156200075d57634e487b7160e01b81526011600452602481fd5b500190565b60005b838110156200077f57818101518382015260200162000765565b838111156200078f576000848401525b50505050565b600181811c90821680620007aa57607f821691505b60208210811415620007cc57634e487b7160e01b600052602260045260246000fd5b50919050565b601f8201601f191681016001600160401b0381118282101715620007fa57620007fa62000801565b6040525050565b634e487b7160e01b600052604160045260246000fd5b600060033d11156200082d57600481823e5160e01c5b90565b600060443d10156200083f5790565b6040516003193d81016004833e81513d6001600160401b0380831160248401831017156200086f57505050505090565b8285019150815181811115620008885750505050505090565b843d8701016020828501011115620008a35750505050505090565b620008b460208286010187620007d2565b509095945050505050565b6129f280620008cf6000396000f3fe608060405234801561001057600080fd5b506004361061014c5760003560e01c80638cc5510f116100c3578063a5a00c311161007c578063a5a00c31146102b4578063b187bd26146102c7578063b359c99d146102d2578063e985e9c5146102e5578063f242432a14610321578063f2fde38b1461033457600080fd5b80638cc5510f146102455780638da5cb5b1461025857806394a9647e1461027357806395d89b4114610286578063961067ab1461028e578063a22cb465146102a157600080fd5b806306fdde031161011557806306fdde03146101d55780630e89341c146101ea57806316c61ccc146101fd5780632eb2c2d61461020a5780634e1273f41461021d578063715018a61461023d57600080fd5b8062fdd58e1461015157806301ffc9a71461017757806302329a291461019a57806302fe5305146101af578063046dc166146101c2575b600080fd5b61016461015f366004612188565b610347565b6040519081526020015b60405180910390f35b61018a61018536600461230f565b6103de565b604051901515815260200161016e565b6101ad6101a83660046122f5565b610430565b005b6101ad6101bd366004612347565b61046d565b6101ad6101d0366004611f95565b6104ae565b6101dd6104fa565b60405161016e91906125ef565b6101dd6101f8366004612379565b610588565b600a5461018a9060ff1681565b6101ad610218366004611fe8565b6105bc565b61023061022b36600461222b565b610653565b60405161016e91906125b7565b6101ad6107b4565b6101ad6102533660046120ef565b6107ea565b6003546040516001600160a01b03909116815260200161016e565b6102306102813660046121b1565b61083f565b6101dd610adf565b61016461029c366004612118565b610aec565b6101ad6102af3660046120ef565b610c71565b6101ad6102c2366004611f95565b610d48565b600a5460ff1661018a565b6101ad6102e0366004612188565b610d96565b61018a6102f3366004611fb6565b6001600160a01b03918216600090815260016020908152604080832093909416825291909152205460ff1690565b6101ad61032f36600461208d565b610dfa565b6101ad610342366004611f95565b610e81565b60006001600160a01b0383166103b85760405162461bcd60e51b815260206004820152602b60248201527f455243313135353a2062616c616e636520717565727920666f7220746865207a60448201526a65726f206164647265737360a81b60648201526084015b60405180910390fd5b506000908152602081815260408083206001600160a01b03949094168352929052205490565b60006001600160e01b03198216636cdb3d1360e11b148061040f57506001600160e01b031982166303a24d0760e21b145b8061042a57506301ffc9a760e01b6001600160e01b03198316145b92915050565b6003546001600160a01b0316331461045a5760405162461bcd60e51b81526004016103af906126d9565b600a805460ff1916911515919091179055565b6003546001600160a01b031633146104975760405162461bcd60e51b81526004016103af906126d9565b80516104aa906006906020840190611dee565b5050565b6003546001600160a01b031633146104d85760405162461bcd60e51b81526004016103af906126d9565b600780546001600160a01b0319166001600160a01b0392909216919091179055565b600480546105079061282d565b80601f01602080910402602001604051908101604052809291908181526020018280546105339061282d565b80156105805780601f1061055557610100808354040283529160200191610580565b820191906000526020600020905b81548152906001019060200180831161056357829003601f168201915b505050505081565b6060600661059583610f22565b6040516020016105a692919061246e565b6040516020818303038152906040529050919050565b6001600160a01b0385163314806105d857506105d885336102f3565b61063f5760405162461bcd60e51b815260206004820152603260248201527f455243313135353a207472616e736665722063616c6c6572206973206e6f74206044820152711bdddb995c881b9bdc88185c1c1c9bdd995960721b60648201526084016103af565b61064c858585858561103b565b5050505050565b606081518351146106b85760405162461bcd60e51b815260206004820152602960248201527f455243313135353a206163636f756e747320616e6420696473206c656e677468604482015268040dad2e6dac2e8c6d60bb1b60648201526084016103af565b600083516001600160401b038111156106e157634e487b7160e01b600052604160045260246000fd5b60405190808252806020026020018201604052801561070a578160200160208202803683370190505b50905060005b84518110156107ac5761077185828151811061073c57634e487b7160e01b600052603260045260246000fd5b602002602001015185838151811061076457634e487b7160e01b600052603260045260246000fd5b6020026020010151610347565b82828151811061079157634e487b7160e01b600052603260045260246000fd5b60209081029190910101526107a581612894565b9050610710565b509392505050565b6003546001600160a01b031633146107de5760405162461bcd60e51b81526004016103af906126d9565b6107e860006111f3565b565b6003546001600160a01b031633146108145760405162461bcd60e51b81526004016103af906126d9565b6001600160a01b03919091166000908152600960205260409020805460ff1916911515919091179055565b6001600160a01b03841660009081526009602052604090205460609060ff166108a757600a5460ff16156108a75760405162461bcd60e51b815260206004820152600f60248201526e109c9959591a5b99c814185d5cd959608a1b60448201526064016103af565b6108bb6108b5868686611245565b836112bf565b6108fb5760405162461bcd60e51b8152602060048201526011602482015270496e76616c6964207369676e617475726560781b60448201526064016103af565b600b8360405161090b9190612452565b9081526040519081900360200190205460ff16156109575760405162461bcd60e51b815260206004820152600960248201526812185cda081d5cd95960ba1b60448201526064016103af565b6000846001600160401b0381111561097f57634e487b7160e01b600052604160045260246000fd5b6040519080825280602002602001820160405280156109a8578160200160208202803683370190505b5090506000856001600160401b038111156109d357634e487b7160e01b600052604160045260246000fd5b6040519080825280602002602001820160405280156109fc578160200160208202803683370190505b50905060005b86811015610a8657610a18600c80546001019055565b600c54838281518110610a3b57634e487b7160e01b600052603260045260246000fd5b6020026020010181815250506001828281518110610a6957634e487b7160e01b600052603260045260246000fd5b602090810291909101015280610a7e81612894565b915050610a02565b50610aa2878383604051806020016040528060008152506112e9565b6001600b86604051610ab49190612452565b908152604051908190036020019020805491151560ff19909216919091179055509050949350505050565b600580546105079061282d565b6001600160a01b03831660009081526009602052604081205460ff16610b5157600a5460ff1615610b515760405162461bcd60e51b815260206004820152600f60248201526e109c9959591a5b99c814185d5cd959608a1b60448201526064016103af565b610b606108b585600186611245565b610ba05760405162461bcd60e51b8152602060048201526011602482015270496e76616c6964207369676e617475726560781b60448201526064016103af565b600b83604051610bb09190612452565b9081526040519081900360200190205460ff1615610bfc5760405162461bcd60e51b815260206004820152600960248201526812185cda081d5cd95960ba1b60448201526064016103af565b610c0a600c80546001019055565b610c2e84610c17600c5490565b600160405180602001604052806000815250611450565b6001600b84604051610c409190612452565b908152604051908190036020019020805491151560ff19909216919091179055610c69600c5490565b949350505050565b336001600160a01b0383161415610cdc5760405162461bcd60e51b815260206004820152602960248201527f455243313135353a2073657474696e6720617070726f76616c20737461747573604482015268103337b91039b2b63360b91b60648201526084016103af565b3360008181526001602090815260408083206001600160a01b03871680855290835292819020805460ff191686151590811790915590519081529192917f17307eab39ab6107e8899845ad3d59bd9653f200f220920489ca2b5937696c31910160405180910390a35050565b6003546001600160a01b03163314610d725760405162461bcd60e51b81526004016103af906126d9565b6001600160a01b03166000908152600860205260409020805460ff19166001179055565b3360009081526008602052604090205460ff16610dee5760405162461bcd60e51b8152602060048201526016602482015275496e76616c6964206275726e6572206164647265737360501b60448201526064016103af565b6104aa82826001611520565b6001600160a01b038516331480610e165750610e1685336102f3565b610e745760405162461bcd60e51b815260206004820152602960248201527f455243313135353a2063616c6c6572206973206e6f74206f776e6572206e6f7260448201526808185c1c1c9bdd995960ba1b60648201526084016103af565b61064c858585858561169a565b6003546001600160a01b03163314610eab5760405162461bcd60e51b81526004016103af906126d9565b6001600160a01b038116610f105760405162461bcd60e51b815260206004820152602660248201527f4f776e61626c653a206e6577206f776e657220697320746865207a65726f206160448201526564647265737360d01b60648201526084016103af565b610f19816111f3565b50565b3b151590565b606081610f465750506040805180820190915260018152600360fc1b602082015290565b8160005b8115610f705780610f5a81612894565b9150610f699050600a836127d2565b9150610f4a565b6000816001600160401b03811115610f9857634e487b7160e01b600052604160045260246000fd5b6040519080825280601f01601f191660200182016040528015610fc2576020820181803683370190505b5090505b8415610c6957610fd76001836127e6565b9150610fe4600a866128af565b610fef9060306127ba565b60f81b81838151811061101257634e487b7160e01b600052603260045260246000fd5b60200101906001600160f81b031916908160001a905350611034600a866127d2565b9450610fc6565b815183511461105c5760405162461bcd60e51b81526004016103af9061270e565b6001600160a01b0384166110825760405162461bcd60e51b81526004016103af9061264a565b3360005b84518110156111855760008582815181106110b157634e487b7160e01b600052603260045260246000fd5b6020026020010151905060008583815181106110dd57634e487b7160e01b600052603260045260246000fd5b602090810291909101810151600084815280835260408082206001600160a01b038e16835290935291909120549091508181101561112d5760405162461bcd60e51b81526004016103af9061268f565b6000838152602081815260408083206001600160a01b038e8116855292528083208585039055908b1682528120805484929061116a9084906127ba565b925050819055505050508061117e90612894565b9050611086565b50846001600160a01b0316866001600160a01b0316826001600160a01b03167f4a39dc06d4c0dbc64b70af90fd698a233a518aa5d07e595d983b8c0526c8f7fb87876040516111d59291906125ca565b60405180910390a46111eb8187878787876117b7565b505050505050565b600380546001600160a01b038381166001600160a01b0319831681179093556040519116919082907f8be0079c531659141344cd1fd0a4f28419497f9722a3daafe3b4186f6b6457e090600090a35050565b6000610c6984848460405160200161125f93929190612413565b60408051601f1981840301815282825280516020918201207f19457468657265756d205369676e6564204d6573736167653a0a33320000000084830152603c8085019190915282518085039091018152605c909301909152815191012090565b6007546000906001600160a01b03166112d88484611922565b6001600160a01b0316149392505050565b6001600160a01b03841661130f5760405162461bcd60e51b81526004016103af90612756565b81518351146113305760405162461bcd60e51b81526004016103af9061270e565b3360005b84518110156113e85783818151811061135d57634e487b7160e01b600052603260045260246000fd5b602002602001015160008087848151811061138857634e487b7160e01b600052603260045260246000fd5b602002602001015181526020019081526020016000206000886001600160a01b03166001600160a01b0316815260200190815260200160002060008282546113d091906127ba565b909155508190506113e081612894565b915050611334565b50846001600160a01b031660006001600160a01b0316826001600160a01b03167f4a39dc06d4c0dbc64b70af90fd698a233a518aa5d07e595d983b8c0526c8f7fb87876040516114399291906125ca565b60405180910390a461064c816000878787876117b7565b6001600160a01b0384166114765760405162461bcd60e51b81526004016103af90612756565b33611490816000876114878861193e565b61064c8861193e565b6000848152602081815260408083206001600160a01b0389168452909152812080548592906114c09084906127ba565b909155505060408051858152602081018590526001600160a01b0380881692600092918516917fc3d58168c5ae7397731d063d5bbf3d657854427343f4c083240f7aacaa2d0f62910160405180910390a461064c81600087878787611997565b6001600160a01b0383166115825760405162461bcd60e51b815260206004820152602360248201527f455243313135353a206275726e2066726f6d20746865207a65726f206164647260448201526265737360e81b60648201526084016103af565b336115b2818560006115938761193e565b61159c8761193e565b5050604080516020810190915260009052505050565b6000838152602081815260408083206001600160a01b03881684529091529020548281101561162f5760405162461bcd60e51b8152602060048201526024808201527f455243313135353a206275726e20616d6f756e7420657863656564732062616c604482015263616e636560e01b60648201526084016103af565b6000848152602081815260408083206001600160a01b03898116808652918452828520888703905582518981529384018890529092908616917fc3d58168c5ae7397731d063d5bbf3d657854427343f4c083240f7aacaa2d0f62910160405180910390a45050505050565b6001600160a01b0384166116c05760405162461bcd60e51b81526004016103af9061264a565b336116d08187876114878861193e565b6000848152602081815260408083206001600160a01b038a168452909152902054838110156117115760405162461bcd60e51b81526004016103af9061268f565b6000858152602081815260408083206001600160a01b038b811685529252808320878503905590881682528120805486929061174e9084906127ba565b909155505060408051868152602081018690526001600160a01b03808916928a821692918616917fc3d58168c5ae7397731d063d5bbf3d657854427343f4c083240f7aacaa2d0f62910160405180910390a46117ae828888888888611997565b50505050505050565b6001600160a01b0384163b156111eb5760405163bc197c8160e01b81526001600160a01b0385169063bc197c81906117fb9089908990889088908890600401612514565b602060405180830381600087803b15801561181557600080fd5b505af1925050508015611845575060408051601f3d908101601f191682019092526118429181019061232b565b60015b6118f257611851612905565b806308c379a0141561188b575061186661291d565b80611871575061188d565b8060405162461bcd60e51b81526004016103af91906125ef565b505b60405162461bcd60e51b815260206004820152603460248201527f455243313135353a207472616e7366657220746f206e6f6e20455243313135356044820152732932b1b2b4bb32b91034b6b83632b6b2b73a32b960611b60648201526084016103af565b6001600160e01b0319811663bc197c8160e01b146117ae5760405162461bcd60e51b81526004016103af90612602565b60008060006119318585611a61565b915091506107ac81611ad1565b6040805160018082528183019092526060916000919060208083019080368337019050509050828160008151811061198657634e487b7160e01b600052603260045260246000fd5b602090810291909101015292915050565b6001600160a01b0384163b156111eb5760405163f23a6e6160e01b81526001600160a01b0385169063f23a6e61906119db9089908990889088908890600401612572565b602060405180830381600087803b1580156119f557600080fd5b505af1925050508015611a25575060408051601f3d908101601f19168201909252611a229181019061232b565b60015b611a3157611851612905565b6001600160e01b0319811663f23a6e6160e01b146117ae5760405162461bcd60e51b81526004016103af90612602565b600080825160411415611a985760208301516040840151606085015160001a611a8c87828585611cd2565b94509450505050611aca565b825160401415611ac25760208301516040840151611ab7868383611dbf565b935093505050611aca565b506000905060025b9250929050565b6000816004811115611af357634e487b7160e01b600052602160045260246000fd5b1415611afc5750565b6001816004811115611b1e57634e487b7160e01b600052602160045260246000fd5b1415611b6c5760405162461bcd60e51b815260206004820152601860248201527f45434453413a20696e76616c6964207369676e6174757265000000000000000060448201526064016103af565b6002816004811115611b8e57634e487b7160e01b600052602160045260246000fd5b1415611bdc5760405162461bcd60e51b815260206004820152601f60248201527f45434453413a20696e76616c6964207369676e6174757265206c656e6774680060448201526064016103af565b6003816004811115611bfe57634e487b7160e01b600052602160045260246000fd5b1415611c575760405162461bcd60e51b815260206004820152602260248201527f45434453413a20696e76616c6964207369676e6174757265202773272076616c604482015261756560f01b60648201526084016103af565b6004816004811115611c7957634e487b7160e01b600052602160045260246000fd5b1415610f195760405162461bcd60e51b815260206004820152602260248201527f45434453413a20696e76616c6964207369676e6174757265202776272076616c604482015261756560f01b60648201526084016103af565b6000807f7fffffffffffffffffffffffffffffff5d576e7357a4501ddfe92f46681b20a0831115611d095750600090506003611db6565b8460ff16601b14158015611d2157508460ff16601c14155b15611d325750600090506004611db6565b6040805160008082526020820180845289905260ff881692820192909252606081018690526080810185905260019060a0016020604051602081039080840390855afa158015611d86573d6000803e3d6000fd5b5050604051601f1901519150506001600160a01b038116611daf57600060019250925050611db6565b9150600090505b94509492505050565b6000806001600160ff1b03831660ff84901c601b01611de087828885611cd2565b935093505050935093915050565b828054611dfa9061282d565b90600052602060002090601f016020900481019282611e1c5760008555611e62565b82601f10611e3557805160ff1916838001178555611e62565b82800160010185558215611e62579182015b82811115611e62578251825591602001919060010190611e47565b50611e6e929150611e72565b5090565b5b80821115611e6e5760008155600101611e73565b80356001600160a01b0381168114611e9e57600080fd5b919050565b600082601f830112611eb3578081fd5b81356020611ec082612797565b604051611ecd8282612868565b8381528281019150858301600585901b87018401881015611eec578586fd5b855b85811015611f0a57813584529284019290840190600101611eee565b5090979650505050505050565b80358015158114611e9e57600080fd5b600082601f830112611f37578081fd5b81356001600160401b03811115611f5057611f506128ef565b604051611f67601f8301601f191660200182612868565b818152846020838601011115611f7b578283fd5b816020850160208301379081016020019190915292915050565b600060208284031215611fa6578081fd5b611faf82611e87565b9392505050565b60008060408385031215611fc8578081fd5b611fd183611e87565b9150611fdf60208401611e87565b90509250929050565b600080600080600060a08688031215611fff578081fd5b61200886611e87565b945061201660208701611e87565b935060408601356001600160401b0380821115612031578283fd5b61203d89838a01611ea3565b94506060880135915080821115612052578283fd5b61205e89838a01611ea3565b93506080880135915080821115612073578283fd5b5061208088828901611f27565b9150509295509295909350565b600080600080600060a086880312156120a4578081fd5b6120ad86611e87565b94506120bb60208701611e87565b9350604086013592506060860135915060808601356001600160401b038111156120e3578182fd5b61208088828901611f27565b60008060408385031215612101578182fd5b61210a83611e87565b9150611fdf60208401611f17565b60008060006060848603121561212c578283fd5b61213584611e87565b925060208401356001600160401b0380821115612150578384fd5b61215c87838801611f27565b93506040860135915080821115612171578283fd5b5061217e86828701611f27565b9150509250925092565b6000806040838503121561219a578182fd5b6121a383611e87565b946020939093013593505050565b600080600080608085870312156121c6578182fd5b6121cf85611e87565b93506020850135925060408501356001600160401b03808211156121f1578384fd5b6121fd88838901611f27565b93506060870135915080821115612212578283fd5b5061221f87828801611f27565b91505092959194509250565b6000806040838503121561223d578182fd5b82356001600160401b0380821115612253578384fd5b818501915085601f830112612266578384fd5b8135602061227382612797565b6040516122808282612868565b8381528281019150858301600585901b870184018b101561229f578889fd5b8896505b848710156122c8576122b481611e87565b8352600196909601959183019183016122a3565b50965050860135925050808211156122de578283fd5b506122eb85828601611ea3565b9150509250929050565b600060208284031215612306578081fd5b611faf82611f17565b600060208284031215612320578081fd5b8135611faf816129a6565b60006020828403121561233c578081fd5b8151611faf816129a6565b600060208284031215612358578081fd5b81356001600160401b0381111561236d578182fd5b610c6984828501611f27565b60006020828403121561238a578081fd5b5035919050565b6000815180845260208085019450808401835b838110156123c0578151875295820195908201906001016123a4565b509495945050505050565b600081518084526123e38160208601602086016127fd565b601f01601f19169290920160200192915050565b600081516124098185602086016127fd565b9290920192915050565b6bffffffffffffffffffffffff198460601b168152826014820152600082516124438160348501602087016127fd565b91909101603401949350505050565b600082516124648184602087016127fd565b9190910192915050565b600080845482600182811c91508083168061248a57607f831692505b60208084108214156124aa57634e487b7160e01b87526022600452602487fd5b8180156124be57600181146124cf576124fb565b60ff198616895284890196506124fb565b60008b815260209020885b868110156124f35781548b8201529085019083016124da565b505084890196505b50505050505061250b81856123f7565b95945050505050565b6001600160a01b0386811682528516602082015260a06040820181905260009061254090830186612391565b82810360608401526125528186612391565b9050828103608084015261256681856123cb565b98975050505050505050565b6001600160a01b03868116825285166020820152604081018490526060810183905260a0608082018190526000906125ac908301846123cb565b979650505050505050565b602081526000611faf6020830184612391565b6040815260006125dd6040830185612391565b828103602084015261250b8185612391565b602081526000611faf60208301846123cb565b60208082526028908201527f455243313135353a204552433131353552656365697665722072656a656374656040820152676420746f6b656e7360c01b606082015260800190565b60208082526025908201527f455243313135353a207472616e7366657220746f20746865207a65726f206164604082015264647265737360d81b606082015260800190565b6020808252602a908201527f455243313135353a20696e73756666696369656e742062616c616e636520666f60408201526939103a3930b739b332b960b11b606082015260800190565b6020808252818101527f4f776e61626c653a2063616c6c6572206973206e6f7420746865206f776e6572604082015260600190565b60208082526028908201527f455243313135353a2069647320616e6420616d6f756e7473206c656e677468206040820152670dad2e6dac2e8c6d60c31b606082015260800190565b60208082526021908201527f455243313135353a206d696e7420746f20746865207a65726f206164647265736040820152607360f81b606082015260800190565b60006001600160401b038211156127b0576127b06128ef565b5060051b60200190565b600082198211156127cd576127cd6128c3565b500190565b6000826127e1576127e16128d9565b500490565b6000828210156127f8576127f86128c3565b500390565b60005b83811015612818578181015183820152602001612800565b83811115612827576000848401525b50505050565b600181811c9082168061284157607f821691505b6020821081141561286257634e487b7160e01b600052602260045260246000fd5b50919050565b601f8201601f191681016001600160401b038111828210171561288d5761288d6128ef565b6040525050565b60006000198214156128a8576128a86128c3565b5060010190565b6000826128be576128be6128d9565b500690565b634e487b7160e01b600052601160045260246000fd5b634e487b7160e01b600052601260045260246000fd5b634e487b7160e01b600052604160045260246000fd5b600060033d111561291a57600481823e5160e01c5b90565b600060443d101561292b5790565b6040516003193d81016004833e81513d6001600160401b03816024840111818411171561295a57505050505090565b82850191508151818111156129725750505050505090565b843d870101602082850101111561298c5750505050505090565b61299b60208286010187612868565b509095945050505050565b6001600160e01b031981168114610f1957600080fdfea26469706673582212209ccd13f61b49c2e2fe6f1f10dd75aa1b26508db320a5027269ad38d84ddd1ed464736f6c63430008040033",
  "linkReferences": {},
  "deployedLinkReferences": {}
}