{
  "_format": "hh-sol-artifact-1",
  "contractName": "FlyTrap",
  "sourceName": "contracts/FlyTrap.sol",
  "abi": [
    {
      "inputs": [
        {
          "internalType": "string",
          "name": "_uri",
          "type": "string"
        }
      ],
      "stateMutability": "nonpayable",
      "type": "constructor"
    },
    {
      "anonymous": false,
      "inputs": [
        {
          "indexed": true,
          "internalType": "address",
          "name": "account",
          "type": "address"
        },
        {
          "indexed": true,
          "internalType": "address",
          "name": "operator",
          "type": "address"
        },
        {
          "indexed": false,
          "internalType": "bool",
          "name": "approved",
          "type": "bool"
        }
      ],
      "name": "ApprovalForAll",
      "type": "event"
    },
    {
      "anonymous": false,
      "inputs": [
        {
          "indexed": true,
          "internalType": "address",
          "name": "previousOwner",
          "type": "address"
        },
        {
          "indexed": true,
          "internalType": "address",
          "name": "newOwner",
          "type": "address"
        }
      ],
      "name": "OwnershipTransferred",
      "type": "event"
    },
    {
      "anonymous": false,
      "inputs": [
        {
          "indexed": true,
          "internalType": "address",
          "name": "operator",
          "type": "address"
        },
        {
          "indexed": true,
          "internalType": "address",
          "name": "from",
          "type": "address"
        },
        {
          "indexed": true,
          "internalType": "address",
          "name": "to",
          "type": "address"
        },
        {
          "indexed": false,
          "internalType": "uint256[]",
          "name": "ids",
          "type": "uint256[]"
        },
        {
          "indexed": false,
          "internalType": "uint256[]",
          "name": "values",
          "type": "uint256[]"
        }
      ],
      "name": "TransferBatch",
      "type": "event"
    },
    {
      "anonymous": false,
      "inputs": [
        {
          "indexed": true,
          "internalType": "address",
          "name": "operator",
          "type": "address"
        },
        {
          "indexed": true,
          "internalType": "address",
          "name": "from",
          "type": "address"
        },
        {
          "indexed": true,
          "internalType": "address",
          "name": "to",
          "type": "address"
        },
        {
          "indexed": false,
          "internalType": "uint256",
          "name": "id",
          "type": "uint256"
        },
        {
          "indexed": false,
          "internalType": "uint256",
          "name": "value",
          "type": "uint256"
        }
      ],
      "name": "TransferSingle",
      "type": "event"
    },
    {
      "anonymous": false,
      "inputs": [
        {
          "indexed": false,
          "internalType": "string",
          "name": "value",
          "type": "string"
        },
        {
          "indexed": true,
          "internalType": "uint256",
          "name": "id",
          "type": "uint256"
        }
      ],
      "name": "URI",
      "type": "event"
    },
    {
      "inputs": [
        {
          "internalType": "address",
          "name": "burnerAddress",
          "type": "address"
        }
      ],
      "name": "addBurnerAddress",
      "outputs": [],
      "stateMutability": "nonpayable",
      "type": "function"
    },
    {
      "inputs": [
        {
          "internalType": "address",
          "name": "account",
          "type": "address"
        },
        {
          "internalType": "uint256",
          "name": "id",
          "type": "uint256"
        }
      ],
      "name": "balanceOf",
      "outputs": [
        {
          "internalType": "uint256",
          "name": "",
          "type": "uint256"
        }
      ],
      "stateMutability": "view",
      "type": "function"
    },
    {
      "inputs": [
        {
          "internalType": "address[]",
          "name": "accounts",
          "type": "address[]"
        },
        {
          "internalType": "uint256[]",
          "name": "ids",
          "type": "uint256[]"
        }
      ],
      "name": "balanceOfBatch",
      "outputs": [
        {
          "internalType": "uint256[]",
          "name": "",
          "type": "uint256[]"
        }
      ],
      "stateMutability": "view",
      "type": "function"
    },
    {
      "inputs": [
        {
          "internalType": "address",
          "name": "burnTokenAddress",
          "type": "address"
        },
        {
          "internalType": "uint256",
          "name": "typeId",
          "type": "uint256"
        },
        {
          "internalType": "uint256",
          "name": "amount",
          "type": "uint256"
        }
      ],
      "name": "burnForAddress",
      "outputs": [],
      "stateMutability": "nonpayable",
      "type": "function"
    },
    {
      "inputs": [
        {
          "internalType": "address",
          "name": "account",
          "type": "address"
        },
        {
          "internalType": "uint256[]",
          "name": "ids",
          "type": "uint256[]"
        },
        {
          "internalType": "uint256[]",
          "name": "amounts",
          "type": "uint256[]"
        }
      ],
      "name": "claim",
      "outputs": [],
      "stateMutability": "nonpayable",
      "type": "function"
    },
    {
      "inputs": [
        {
          "internalType": "address",
          "name": "account",
          "type": "address"
        },
        {
          "internalType": "address",
          "name": "operator",
          "type": "address"
        }
      ],
      "name": "isApprovedForAll",
      "outputs": [
        {
          "internalType": "bool",
          "name": "",
          "type": "bool"
        }
      ],
      "stateMutability": "view",
      "type": "function"
    },
    {
      "inputs": [
        {
          "internalType": "address",
          "name": "to",
          "type": "address"
        },
        {
          "internalType": "uint256",
          "name": "id",
          "type": "uint256"
        },
        {
          "internalType": "uint256",
          "name": "amount",
          "type": "uint256"
        },
        {
          "internalType": "bytes",
          "name": "data",
          "type": "bytes"
        }
      ],
      "name": "mint",
      "outputs": [],
      "stateMutability": "nonpayable",
      "type": "function"
    },
    {
      "inputs": [
        {
          "internalType": "address",
          "name": "to",
          "type": "address"
        },
        {
          "internalType": "uint256[]",
          "name": "ids",
          "type": "uint256[]"
        },
        {
          "internalType": "uint256[]",
          "name": "amounts",
          "type": "uint256[]"
        },
        {
          "internalType": "bytes",
          "name": "data",
          "type": "bytes"
        }
      ],
      "name": "mintBatch",
      "outputs": [],
      "stateMutability": "nonpayable",
      "type": "function"
    },
    {
      "inputs": [],
      "name": "name",
      "outputs": [
        {
          "internalType": "string",
          "name": "",
          "type": "string"
        }
      ],
      "stateMutability": "view",
      "type": "function"
    },
    {
      "inputs": [],
      "name": "owner",
      "outputs": [
        {
          "internalType": "address",
          "name": "",
          "type": "address"
        }
      ],
      "stateMutability": "view",
      "type": "function"
    },
    {
      "inputs": [],
      "name": "renounceOwnership",
      "outputs": [],
      "stateMutability": "nonpayable",
      "type": "function"
    },
    {
      "inputs": [
        {
          "internalType": "address",
          "name": "from",
          "type": "address"
        },
        {
          "internalType": "address",
          "name": "to",
          "type": "address"
        },
        {
          "internalType": "uint256[]",
          "name": "ids",
          "type": "uint256[]"
        },
        {
          "internalType": "uint256[]",
          "name": "amounts",
          "type": "uint256[]"
        },
        {
          "internalType": "bytes",
          "name": "data",
          "type": "bytes"
        }
      ],
      "name": "safeBatchTransferFrom",
      "outputs": [],
      "stateMutability": "nonpayable",
      "type": "function"
    },
    {
      "inputs": [
        {
          "internalType": "address",
          "name": "from",
          "type": "address"
        },
        {
          "internalType": "address",
          "name": "to",
          "type": "address"
        },
        {
          "internalType": "uint256",
          "name": "id",
          "type": "uint256"
        },
        {
          "internalType": "uint256",
          "name": "amount",
          "type": "uint256"
        },
        {
          "internalType": "bytes",
          "name": "data",
          "type": "bytes"
        }
      ],
      "name": "safeTransferFrom",
      "outputs": [],
      "stateMutability": "nonpayable",
      "type": "function"
    },
    {
      "inputs": [
        {
          "internalType": "address",
          "name": "operator",
          "type": "address"
        },
        {
          "internalType": "bool",
          "name": "approved",
          "type": "bool"
        }
      ],
      "name": "setApprovalForAll",
      "outputs": [],
      "stateMutability": "nonpayable",
      "type": "function"
    },
    {
      "inputs": [
        {
          "internalType": "string",
          "name": "_baseURI",
          "type": "string"
        }
      ],
      "name": "setURI",
      "outputs": [],
      "stateMutability": "nonpayable",
      "type": "function"
    },
    {
      "inputs": [
        {
          "internalType": "bytes4",
          "name": "interfaceId",
          "type": "bytes4"
        }
      ],
      "name": "supportsInterface",
      "outputs": [
        {
          "internalType": "bool",
          "name": "",
          "type": "bool"
        }
      ],
      "stateMutability": "view",
      "type": "function"
    },
    {
      "inputs": [],
      "name": "symbol",
      "outputs": [
        {
          "internalType": "string",
          "name": "",
          "type": "string"
        }
      ],
      "stateMutability": "view",
      "type": "function"
    },
    {
      "inputs": [
        {
          "internalType": "address",
          "name": "newOwner",
          "type": "address"
        }
      ],
      "name": "transferOwnership",
      "outputs": [],
      "stateMutability": "nonpayable",
      "type": "function"
    },
    {
      "inputs": [
        {
          "internalType": "uint256",
          "name": "typeId",
          "type": "uint256"
        }
      ],
      "name": "uri",
      "outputs": [
        {
          "internalType": "string",
          "name": "",
          "type": "string"
        }
      ],
      "stateMutability": "view",
      "type": "function"
    }
  ],
  "bytecode": "0x60806040523480156200001157600080fd5b5060405162002452380380620024528339810160408190526200003491620001dd565b806200004081620000cc565b506200004c33620000e5565b80516200006190600690602084019062000137565b50604080518082019091526008808252670466c7920547261760c41b6020909201918252620000939160049162000137565b50604080518082019091526007808252660464c59545241560cc1b6020909201918252620000c49160059162000137565b505062000306565b8051620000e190600290602084019062000137565b5050565b600380546001600160a01b038381166001600160a01b0319831681179093556040519116919082907f8be0079c531659141344cd1fd0a4f28419497f9722a3daafe3b4186f6b6457e090600090a35050565b8280546200014590620002b3565b90600052602060002090601f016020900481019282620001695760008555620001b4565b82601f106200018457805160ff1916838001178555620001b4565b82800160010185558215620001b4579182015b82811115620001b457825182559160200191906001019062000197565b50620001c2929150620001c6565b5090565b5b80821115620001c25760008155600101620001c7565b60006020808385031215620001f0578182fd5b82516001600160401b038082111562000207578384fd5b818501915085601f8301126200021b578384fd5b815181811115620002305762000230620002f0565b604051601f8201601f19908116603f011681019083821181831017156200025b576200025b620002f0565b81604052828152888684870101111562000273578687fd5b8693505b8284101562000296578484018601518185018701529285019262000277565b82841115620002a757868684830101525b98975050505050505050565b600181811c90821680620002c857607f821691505b60208210811415620002ea57634e487b7160e01b600052602260045260246000fd5b50919050565b634e487b7160e01b600052604160045260246000fd5b61213c80620003166000396000f3fe608060405234801561001057600080fd5b50600436106101205760003560e01c806363d05442116100ad578063a22cb46511610071578063a22cb46514610255578063a5a00c3114610268578063e985e9c51461027b578063f242432a146102b7578063f2fde38b146102ca57600080fd5b806363d0544214610204578063715018a614610217578063731133e91461021f5780638da5cb5b1461023257806395d89b411461024d57600080fd5b80630e89341c116100f45780630e89341c146101985780631f7fdffa146101ab5780632eb2c2d6146101be57806330ebbb7d146101d15780634e1273f4146101e457600080fd5b8062fdd58e1461012557806301ffc9a71461014b57806302fe53051461016e57806306fdde0314610183575b600080fd5b61013861013336600461192e565b6102dd565b6040519081526020015b60405180910390f35b61015e610159366004611aa5565b610374565b6040519015158152602001610142565b61018161017c366004611add565b6103c6565b005b61018b610407565b6040516101429190611d3d565b61018b6101a6366004611b22565b610495565b6101816101b9366004611860565b6104c9565b6101816101cc3660046116e9565b610505565b6101816101df366004611957565b61059c565b6101f76101f23660046119db565b610604565b6040516101429190611d05565b6101816102123660046117f0565b610765565b6101816107aa565b61018161022d366004611989565b6107e0565b6003546040516001600160a01b039091168152602001610142565b61018b610816565b6101816102633660046118f4565b610823565b61018161027636600461169d565b6108fa565b61015e6102893660046116b7565b6001600160a01b03918216600090815260016020908152604080832093909416825291909152205460ff1690565b6101816102c536600461178e565b610948565b6101816102d836600461169d565b6109cf565b60006001600160a01b03831661034e5760405162461bcd60e51b815260206004820152602b60248201527f455243313135353a2062616c616e636520717565727920666f7220746865207a60448201526a65726f206164647265737360a81b60648201526084015b60405180910390fd5b506000908152602081815260408083206001600160a01b03949094168352929052205490565b60006001600160e01b03198216636cdb3d1360e11b14806103a557506001600160e01b031982166303a24d0760e21b145b806103c057506301ffc9a760e01b6001600160e01b03198316145b92915050565b6003546001600160a01b031633146103f05760405162461bcd60e51b815260040161034590611e27565b80516104039060069060208401906114f1565b5050565b6004805461041490611f77565b80601f016020809104026020016040519081016040528092919081815260200182805461044090611f77565b801561048d5780601f106104625761010080835404028352916020019161048d565b820191906000526020600020905b81548152906001019060200180831161047057829003601f168201915b505050505081565b606060066104a283610a6a565b6040516020016104b3929190611bbc565b6040516020818303038152906040529050919050565b6003546001600160a01b031633146104f35760405162461bcd60e51b815260040161034590611e27565b6104ff84848484610b8b565b50505050565b6001600160a01b03851633148061052157506105218533610289565b6105885760405162461bcd60e51b815260206004820152603260248201527f455243313135353a207472616e736665722063616c6c6572206973206e6f74206044820152711bdddb995c881b9bdc88185c1c1c9bdd995960721b6064820152608401610345565b6105958585858585610cf2565b5050505050565b3360009081526007602052604090205460ff166105f45760405162461bcd60e51b8152602060048201526016602482015275496e76616c6964206275726e6572206164647265737360501b6044820152606401610345565b6105ff838383610eaa565b505050565b606081518351146106695760405162461bcd60e51b815260206004820152602960248201527f455243313135353a206163636f756e747320616e6420696473206c656e677468604482015268040dad2e6dac2e8c6d60bb1b6064820152608401610345565b600083516001600160401b0381111561069257634e487b7160e01b600052604160045260246000fd5b6040519080825280602002602001820160405280156106bb578160200160208202803683370190505b50905060005b845181101561075d576107228582815181106106ed57634e487b7160e01b600052603260045260246000fd5b602002602001015185838151811061071557634e487b7160e01b600052603260045260246000fd5b60200260200101516102dd565b82828151811061074257634e487b7160e01b600052603260045260246000fd5b602090810291909101015261075681611fde565b90506106c1565b509392505050565b6003546001600160a01b0316331461078f5760405162461bcd60e51b815260040161034590611e27565b6105ff83838360405180602001604052806000815250610b8b565b6003546001600160a01b031633146107d45760405162461bcd60e51b815260040161034590611e27565b6107de6000611024565b565b6003546001600160a01b0316331461080a5760405162461bcd60e51b815260040161034590611e27565b6104ff84848484611076565b6005805461041490611f77565b336001600160a01b038316141561088e5760405162461bcd60e51b815260206004820152602960248201527f455243313135353a2073657474696e6720617070726f76616c20737461747573604482015268103337b91039b2b63360b91b6064820152608401610345565b3360008181526001602090815260408083206001600160a01b03871680855290835292819020805460ff191686151590811790915590519081529192917f17307eab39ab6107e8899845ad3d59bd9653f200f220920489ca2b5937696c31910160405180910390a35050565b6003546001600160a01b031633146109245760405162461bcd60e51b815260040161034590611e27565b6001600160a01b03166000908152600760205260409020805460ff19166001179055565b6001600160a01b03851633148061096457506109648533610289565b6109c25760405162461bcd60e51b815260206004820152602960248201527f455243313135353a2063616c6c6572206973206e6f74206f776e6572206e6f7260448201526808185c1c1c9bdd995960ba1b6064820152608401610345565b6105958585858585611146565b6003546001600160a01b031633146109f95760405162461bcd60e51b815260040161034590611e27565b6001600160a01b038116610a5e5760405162461bcd60e51b815260206004820152602660248201527f4f776e61626c653a206e6577206f776e657220697320746865207a65726f206160448201526564647265737360d01b6064820152608401610345565b610a6781611024565b50565b606081610a8e5750506040805180820190915260018152600360fc1b602082015290565b8160005b8115610ab85780610aa281611fde565b9150610ab19050600a83611f20565b9150610a92565b6000816001600160401b03811115610ae057634e487b7160e01b600052604160045260246000fd5b6040519080825280601f01601f191660200182016040528015610b0a576020820181803683370190505b5090505b8415610b8357610b1f600183611f34565b9150610b2c600a86611ff9565b610b37906030611f08565b60f81b818381518110610b5a57634e487b7160e01b600052603260045260246000fd5b60200101906001600160f81b031916908160001a905350610b7c600a86611f20565b9450610b0e565b949350505050565b6001600160a01b038416610bb15760405162461bcd60e51b815260040161034590611ea4565b8151835114610bd25760405162461bcd60e51b815260040161034590611e5c565b3360005b8451811015610c8a57838181518110610bff57634e487b7160e01b600052603260045260246000fd5b6020026020010151600080878481518110610c2a57634e487b7160e01b600052603260045260246000fd5b602002602001015181526020019081526020016000206000886001600160a01b03166001600160a01b031681526020019081526020016000206000828254610c729190611f08565b90915550819050610c8281611fde565b915050610bd6565b50846001600160a01b031660006001600160a01b0316826001600160a01b03167f4a39dc06d4c0dbc64b70af90fd698a233a518aa5d07e595d983b8c0526c8f7fb8787604051610cdb929190611d18565b60405180910390a461059581600087878787611263565b8151835114610d135760405162461bcd60e51b815260040161034590611e5c565b6001600160a01b038416610d395760405162461bcd60e51b815260040161034590611d98565b3360005b8451811015610e3c576000858281518110610d6857634e487b7160e01b600052603260045260246000fd5b602002602001015190506000858381518110610d9457634e487b7160e01b600052603260045260246000fd5b602090810291909101810151600084815280835260408082206001600160a01b038e168352909352919091205490915081811015610de45760405162461bcd60e51b815260040161034590611ddd565b6000838152602081815260408083206001600160a01b038e8116855292528083208585039055908b16825281208054849290610e21908490611f08565b9250508190555050505080610e3590611fde565b9050610d3d565b50846001600160a01b0316866001600160a01b0316826001600160a01b03167f4a39dc06d4c0dbc64b70af90fd698a233a518aa5d07e595d983b8c0526c8f7fb8787604051610e8c929190611d18565b60405180910390a4610ea2818787878787611263565b505050505050565b6001600160a01b038316610f0c5760405162461bcd60e51b815260206004820152602360248201527f455243313135353a206275726e2066726f6d20746865207a65726f206164647260448201526265737360e81b6064820152608401610345565b33610f3c81856000610f1d876113ce565b610f26876113ce565b5050604080516020810190915260009052505050565b6000838152602081815260408083206001600160a01b038816845290915290205482811015610fb95760405162461bcd60e51b8152602060048201526024808201527f455243313135353a206275726e20616d6f756e7420657863656564732062616c604482015263616e636560e01b6064820152608401610345565b6000848152602081815260408083206001600160a01b03898116808652918452828520888703905582518981529384018890529092908616917fc3d58168c5ae7397731d063d5bbf3d657854427343f4c083240f7aacaa2d0f62910160405180910390a45050505050565b600380546001600160a01b038381166001600160a01b0319831681179093556040519116919082907f8be0079c531659141344cd1fd0a4f28419497f9722a3daafe3b4186f6b6457e090600090a35050565b6001600160a01b03841661109c5760405162461bcd60e51b815260040161034590611ea4565b336110b6816000876110ad886113ce565b610595886113ce565b6000848152602081815260408083206001600160a01b0389168452909152812080548592906110e6908490611f08565b909155505060408051858152602081018590526001600160a01b0380881692600092918516917fc3d58168c5ae7397731d063d5bbf3d657854427343f4c083240f7aacaa2d0f62910160405180910390a461059581600087878787611427565b6001600160a01b03841661116c5760405162461bcd60e51b815260040161034590611d98565b3361117c8187876110ad886113ce565b6000848152602081815260408083206001600160a01b038a168452909152902054838110156111bd5760405162461bcd60e51b815260040161034590611ddd565b6000858152602081815260408083206001600160a01b038b81168552925280832087850390559088168252812080548692906111fa908490611f08565b909155505060408051868152602081018690526001600160a01b03808916928a821692918616917fc3d58168c5ae7397731d063d5bbf3d657854427343f4c083240f7aacaa2d0f62910160405180910390a461125a828888888888611427565b50505050505050565b6001600160a01b0384163b15610ea25760405163bc197c8160e01b81526001600160a01b0385169063bc197c81906112a79089908990889088908890600401611c62565b602060405180830381600087803b1580156112c157600080fd5b505af19250505080156112f1575060408051601f3d908101601f191682019092526112ee91810190611ac1565b60015b61139e576112fd61204f565b806308c379a014156113375750611312612067565b8061131d5750611339565b8060405162461bcd60e51b81526004016103459190611d3d565b505b60405162461bcd60e51b815260206004820152603460248201527f455243313135353a207472616e7366657220746f206e6f6e20455243313135356044820152732932b1b2b4bb32b91034b6b83632b6b2b73a32b960611b6064820152608401610345565b6001600160e01b0319811663bc197c8160e01b1461125a5760405162461bcd60e51b815260040161034590611d50565b6040805160018082528183019092526060916000919060208083019080368337019050509050828160008151811061141657634e487b7160e01b600052603260045260246000fd5b602090810291909101015292915050565b6001600160a01b0384163b15610ea25760405163f23a6e6160e01b81526001600160a01b0385169063f23a6e619061146b9089908990889088908890600401611cc0565b602060405180830381600087803b15801561148557600080fd5b505af19250505080156114b5575060408051601f3d908101601f191682019092526114b291810190611ac1565b60015b6114c1576112fd61204f565b6001600160e01b0319811663f23a6e6160e01b1461125a5760405162461bcd60e51b815260040161034590611d50565b8280546114fd90611f77565b90600052602060002090601f01602090048101928261151f5760008555611565565b82601f1061153857805160ff1916838001178555611565565b82800160010185558215611565579182015b8281111561156557825182559160200191906001019061154a565b50611571929150611575565b5090565b5b808211156115715760008155600101611576565b60006001600160401b038311156115a3576115a3612039565b6040516115ba601f8501601f191660200182611fb2565b8091508381528484840111156115cf57600080fd5b83836020830137600060208583010152509392505050565b80356001600160a01b03811681146115fe57600080fd5b919050565b600082601f830112611613578081fd5b8135602061162082611ee5565b60405161162d8282611fb2565b8381528281019150858301600585901b8701840188101561164c578586fd5b855b8581101561166a5781358452928401929084019060010161164e565b5090979650505050505050565b600082601f830112611687578081fd5b6116968383356020850161158a565b9392505050565b6000602082840312156116ae578081fd5b611696826115e7565b600080604083850312156116c9578081fd5b6116d2836115e7565b91506116e0602084016115e7565b90509250929050565b600080600080600060a08688031215611700578081fd5b611709866115e7565b9450611717602087016115e7565b935060408601356001600160401b0380821115611732578283fd5b61173e89838a01611603565b94506060880135915080821115611753578283fd5b61175f89838a01611603565b93506080880135915080821115611774578283fd5b5061178188828901611677565b9150509295509295909350565b600080600080600060a086880312156117a5578081fd5b6117ae866115e7565b94506117bc602087016115e7565b9350604086013592506060860135915060808601356001600160401b038111156117e4578182fd5b61178188828901611677565b600080600060608486031215611804578283fd5b61180d846115e7565b925060208401356001600160401b0380821115611828578384fd5b61183487838801611603565b93506040860135915080821115611849578283fd5b5061185686828701611603565b9150509250925092565b60008060008060808587031215611875578384fd5b61187e856115e7565b935060208501356001600160401b0380821115611899578485fd5b6118a588838901611603565b945060408701359150808211156118ba578384fd5b6118c688838901611603565b935060608701359150808211156118db578283fd5b506118e887828801611677565b91505092959194509250565b60008060408385031215611906578182fd5b61190f836115e7565b915060208301358015158114611923578182fd5b809150509250929050565b60008060408385031215611940578182fd5b611949836115e7565b946020939093013593505050565b60008060006060848603121561196b578081fd5b611974846115e7565b95602085013595506040909401359392505050565b6000806000806080858703121561199e578182fd5b6119a7856115e7565b9350602085013592506040850135915060608501356001600160401b038111156119cf578182fd5b6118e887828801611677565b600080604083850312156119ed578182fd5b82356001600160401b0380821115611a03578384fd5b818501915085601f830112611a16578384fd5b81356020611a2382611ee5565b604051611a308282611fb2565b8381528281019150858301600585901b870184018b1015611a4f578889fd5b8896505b84871015611a7857611a64816115e7565b835260019690960195918301918301611a53565b5096505086013592505080821115611a8e578283fd5b50611a9b85828601611603565b9150509250929050565b600060208284031215611ab6578081fd5b8135611696816120f0565b600060208284031215611ad2578081fd5b8151611696816120f0565b600060208284031215611aee578081fd5b81356001600160401b03811115611b03578182fd5b8201601f81018413611b13578182fd5b610b838482356020840161158a565b600060208284031215611b33578081fd5b5035919050565b6000815180845260208085019450808401835b83811015611b6957815187529582019590820190600101611b4d565b509495945050505050565b60008151808452611b8c816020860160208601611f4b565b601f01601f19169290920160200192915050565b60008151611bb2818560208601611f4b565b9290920192915050565b600080845482600182811c915080831680611bd857607f831692505b6020808410821415611bf857634e487b7160e01b87526022600452602487fd5b818015611c0c5760018114611c1d57611c49565b60ff19861689528489019650611c49565b60008b815260209020885b86811015611c415781548b820152908501908301611c28565b505084890196505b505050505050611c598185611ba0565b95945050505050565b6001600160a01b0386811682528516602082015260a060408201819052600090611c8e90830186611b3a565b8281036060840152611ca08186611b3a565b90508281036080840152611cb48185611b74565b98975050505050505050565b6001600160a01b03868116825285166020820152604081018490526060810183905260a060808201819052600090611cfa90830184611b74565b979650505050505050565b6020815260006116966020830184611b3a565b604081526000611d2b6040830185611b3a565b8281036020840152611c598185611b3a565b6020815260006116966020830184611b74565b60208082526028908201527f455243313135353a204552433131353552656365697665722072656a656374656040820152676420746f6b656e7360c01b606082015260800190565b60208082526025908201527f455243313135353a207472616e7366657220746f20746865207a65726f206164604082015264647265737360d81b606082015260800190565b6020808252602a908201527f455243313135353a20696e73756666696369656e742062616c616e636520666f60408201526939103a3930b739b332b960b11b606082015260800190565b6020808252818101527f4f776e61626c653a2063616c6c6572206973206e6f7420746865206f776e6572604082015260600190565b60208082526028908201527f455243313135353a2069647320616e6420616d6f756e7473206c656e677468206040820152670dad2e6dac2e8c6d60c31b606082015260800190565b60208082526021908201527f455243313135353a206d696e7420746f20746865207a65726f206164647265736040820152607360f81b606082015260800190565b60006001600160401b03821115611efe57611efe612039565b5060051b60200190565b60008219821115611f1b57611f1b61200d565b500190565b600082611f2f57611f2f612023565b500490565b600082821015611f4657611f4661200d565b500390565b60005b83811015611f66578181015183820152602001611f4e565b838111156104ff5750506000910152565b600181811c90821680611f8b57607f821691505b60208210811415611fac57634e487b7160e01b600052602260045260246000fd5b50919050565b601f8201601f191681016001600160401b0381118282101715611fd757611fd7612039565b6040525050565b6000600019821415611ff257611ff261200d565b5060010190565b60008261200857612008612023565b500690565b634e487b7160e01b600052601160045260246000fd5b634e487b7160e01b600052601260045260246000fd5b634e487b7160e01b600052604160045260246000fd5b600060033d111561206457600481823e5160e01c5b90565b600060443d10156120755790565b6040516003193d81016004833e81513d6001600160401b0381602484011181841117156120a457505050505090565b82850191508151818111156120bc5750505050505090565b843d87010160208285010111156120d65750505050505090565b6120e560208286010187611fb2565b509095945050505050565b6001600160e01b031981168114610a6757600080fdfea26469706673582212205699511359626b4d6357c0ad3658a7a512c943698db3209131cc5d0c32595df564736f6c63430008040033",
  "linkReferences": {},
  "deployedLinkReferences": {}
}